{
  "contractName": "Map",
  "abi": [
    {
      "constant": true,
      "inputs": [
        {
          "internalType": "uint256",
          "name": "",
          "type": "uint256"
        }
      ],
      "name": "data",
      "outputs": [
        {
          "internalType": "string",
          "name": "",
          "type": "string"
        }
      ],
      "payable": false,
      "stateMutability": "view",
      "type": "function"
    },
    {
      "constant": false,
      "inputs": [
        {
          "internalType": "string",
          "name": "_data",
          "type": "string"
        }
      ],
      "name": "insertData",
      "outputs": [],
      "payable": false,
      "stateMutability": "nonpayable",
      "type": "function"
    },
    {
      "constant": true,
      "inputs": [],
      "name": "getData",
      "outputs": [
        {
          "internalType": "string[]",
          "name": "",
          "type": "string[]"
        }
      ],
      "payable": false,
      "stateMutability": "view",
      "type": "function"
    }
  ],
  "bytecode": "0x608060405234801561001057600080fd5b506106c1806100206000396000f3fe608060405234801561001057600080fd5b50600436106100415760003560e01c80633bc5de3014610046578063748af05514610064578063f0ba844014610080575b600080fd5b61004e6100b0565b60405161005b9190610507565b60405180910390f35b61007e600480360361007991908101906103a2565b610199565b005b61009a600480360361009591908101906103e3565b6101db565b6040516100a79190610529565b60405180910390f35b60606000805480602002602001604051908101604052809291908181526020016000905b82821015610190578382906000526020600020018054600181600116156101000203166002900480601f01602080910402602001604051908101604052809291908181526020018280546001816001161561010002031660029004801561017c5780601f106101515761010080835404028352916020019161017c565b820191906000526020600020905b81548152906001019060200180831161015f57829003601f168201915b5050505050815260200190600101906100d4565b50505050905090565b60008190806001815401808255809150509060018203906000526020600020016000909192909190915090805190602001906101d6929190610294565b505050565b600081815481106101e857fe5b906000526020600020016000915090508054600181600116156101000203166002900480601f01602080910402602001604051908101604052809291908181526020018280546001816001161561010002031660029004801561028c5780601f106102615761010080835404028352916020019161028c565b820191906000526020600020905b81548152906001019060200180831161026f57829003601f168201915b505050505081565b828054600181600116156101000203166002900490600052602060002090601f016020900481019282601f106102d557805160ff1916838001178555610303565b82800160010185558215610303579182015b828111156103025782518255916020019190600101906102e7565b5b5090506103109190610314565b5090565b61033691905b8082111561033257600081600090555060010161031a565b5090565b90565b600082601f83011261034a57600080fd5b813561035d61035882610578565b61054b565b9150808252602083016020830185838301111561037957600080fd5b610384838284610614565b50505092915050565b60008135905061039c81610667565b92915050565b6000602082840312156103b457600080fd5b600082013567ffffffffffffffff8111156103ce57600080fd5b6103da84828501610339565b91505092915050565b6000602082840312156103f557600080fd5b60006104038482850161038d565b91505092915050565b60006104188383610495565b905092915050565b600061042b826105b4565b61043581856105d7565b935083602082028501610447856105a4565b8060005b858110156104835784840389528151610464858261040c565b945061046f836105ca565b925060208a0199505060018101905061044b565b50829750879550505050505092915050565b60006104a0826105bf565b6104aa81856105e8565b93506104ba818560208601610623565b6104c381610656565b840191505092915050565b60006104d9826105bf565b6104e381856105f9565b93506104f3818560208601610623565b6104fc81610656565b840191505092915050565b600060208201905081810360008301526105218184610420565b905092915050565b6000602082019050818103600083015261054381846104ce565b905092915050565b6000604051905081810181811067ffffffffffffffff8211171561056e57600080fd5b8060405250919050565b600067ffffffffffffffff82111561058f57600080fd5b601f19601f8301169050602081019050919050565b6000819050602082019050919050565b600081519050919050565b600081519050919050565b6000602082019050919050565b600082825260208201905092915050565b600082825260208201905092915050565b600082825260208201905092915050565b6000819050919050565b82818337600083830152505050565b60005b83811015610641578082015181840152602081019050610626565b83811115610650576000848401525b50505050565b6000601f19601f8301169050919050565b6106708161060a565b811461067b57600080fd5b5056fea365627a7a72315820a54c18e9d3c2077125399aaae138982adb071c6f079a6c27d6d09303924861dd6c6578706572696d656e74616cf564736f6c63430005100040",
  "source": "pragma experimental ABIEncoderV2;\n\ncontract Map{\n    string[] public data;\n\n    function insertData(string memory _data) public {\n        data.push(_data);\n    }\n    function getData() public view returns(string[] memory){\n        return data;\n    }\n}",
  "sourcePath": "/Users/miketsui/Desktop/school/cs4389/assignment/contracts/Map.sol",
  "compiler": {
    "name": "solc",
    "version": "0.5.16+commit.9c3226ce.Emscripten.clang"
  },
  "schemaVersion": "3.0.23",
  "updatedAt": "2020-04-12T06:50:32.259Z",
  "networkType": "ethereum",
  "devdoc": {
    "methods": {}
  },
  "userdoc": {
    "methods": {}
  }
}