{
  "contractName": "Map",
  "abi": [
    {
      "anonymous": false,
      "inputs": [
        {
          "indexed": false,
          "internalType": "address",
          "name": "return_address",
          "type": "address"
        },
        {
          "components": [
            {
              "internalType": "string",
              "name": "title",
              "type": "string"
            },
            {
              "internalType": "string",
              "name": "description",
              "type": "string"
            },
            {
              "internalType": "bool",
              "name": "status",
              "type": "bool"
            },
            {
              "internalType": "string",
              "name": "_address",
              "type": "string"
            }
          ],
          "indexed": false,
          "internalType": "struct Map.markerData",
          "name": "message",
          "type": "tuple"
        }
      ],
      "name": "Notification",
      "type": "event"
    },
    {
      "constant": true,
      "inputs": [
        {
          "internalType": "uint256",
          "name": "",
          "type": "uint256"
        }
      ],
      "name": "data",
      "outputs": [
        {
          "internalType": "string",
          "name": "",
          "type": "string"
        }
      ],
      "payable": false,
      "stateMutability": "view",
      "type": "function"
    },
    {
      "constant": true,
      "inputs": [
        {
          "internalType": "string",
          "name": "",
          "type": "string"
        }
      ],
      "name": "marker",
      "outputs": [
        {
          "internalType": "string",
          "name": "title",
          "type": "string"
        },
        {
          "internalType": "string",
          "name": "description",
          "type": "string"
        },
        {
          "internalType": "bool",
          "name": "status",
          "type": "bool"
        },
        {
          "internalType": "string",
          "name": "_address",
          "type": "string"
        }
      ],
      "payable": false,
      "stateMutability": "view",
      "type": "function"
    },
    {
      "constant": false,
      "inputs": [
        {
          "internalType": "string",
          "name": "title",
          "type": "string"
        },
        {
          "internalType": "string",
          "name": "desc",
          "type": "string"
        },
        {
          "internalType": "bool",
          "name": "status",
          "type": "bool"
        },
        {
          "internalType": "string",
          "name": "_data",
          "type": "string"
        }
      ],
      "name": "insertData",
      "outputs": [],
      "payable": false,
      "stateMutability": "nonpayable",
      "type": "function"
    },
    {
      "constant": true,
      "inputs": [],
      "name": "getData",
      "outputs": [
        {
          "internalType": "string[]",
          "name": "",
          "type": "string[]"
        }
      ],
      "payable": false,
      "stateMutability": "view",
      "type": "function"
    },
    {
      "constant": false,
      "inputs": [
        {
          "internalType": "address",
          "name": "_address",
          "type": "address"
        }
      ],
      "name": "setOracle",
      "outputs": [],
      "payable": false,
      "stateMutability": "nonpayable",
      "type": "function"
    },
    {
      "constant": true,
      "inputs": [],
      "name": "getOracle",
      "outputs": [
        {
          "internalType": "address",
          "name": "oracle_addr",
          "type": "address"
        }
      ],
      "payable": false,
      "stateMutability": "view",
      "type": "function"
    },
    {
      "constant": false,
      "inputs": [
        {
          "internalType": "string",
          "name": "message",
          "type": "string"
        }
      ],
      "name": "oracleCallback",
      "outputs": [],
      "payable": false,
      "stateMutability": "nonpayable",
      "type": "function"
    }
  ],
  "bytecode": "0x608060405234801561001057600080fd5b506110ec806100206000396000f3fe608060405234801561001057600080fd5b506004361061007d5760003560e01c80637adbf9731161005b5780637adbf973146100d8578063833b1fce146100f45780639382d5bf14610112578063f0ba8440146101455761007d565b80630bfd3b8d14610082578063174571b01461009e5780633bc5de30146100ba575b600080fd5b61009c6004803603610097919081019061099e565b610175565b005b6100b860048036036100b391908101906109df565b6101ce565b005b6100c261037d565b6040516100cf9190610de1565b60405180910390f35b6100f260048036036100ed9190810190610934565b610466565b005b6100fc6104aa565b6040516101099190610d66565b60405180910390f35b61012c6004803603610127919081019061095d565b6104d4565b60405161013c9493929190610e25565b60405180910390f35b61015f600480360361015a9190810190610a8a565b6106ef565b60405161016c9190610e03565b60405180910390f35b7fe77439d4267f51364d8e8a87aaf02acbf8dc3d8ffa300c626cf8cc1966337bf1306000836040516101a79190610d4f565b90815260200160405180910390206040516101c3929190610db1565b60405180910390a150565b600181908060018154018082558091505090600182039060005260206000200160009091929091909150908051906020019061020b9291906107a8565b50508360008260405161021e9190610d4f565b908152602001604051809103902060000190805190602001906102429291906107a8565b50826000826040516102549190610d4f565b908152602001604051809103902060010190805190602001906102789291906107a8565b508160008260405161028a9190610d4f565b908152602001604051809103902060020160006101000a81548160ff021916908315150217905550806000826040516102c39190610d4f565b908152602001604051809103902060030190805190602001906102e79291906107a8565b50600260009054906101000a900473ffffffffffffffffffffffffffffffffffffffff1673ffffffffffffffffffffffffffffffffffffffff1663210d1a4030836040518363ffffffff1660e01b8152600401610345929190610d81565b600060405180830381600087803b15801561035f57600080fd5b505af1158015610373573d6000803e3d6000fd5b5050505050505050565b60606001805480602002602001604051908101604052809291908181526020016000905b8282101561045d578382906000526020600020018054600181600116156101000203166002900480601f0160208091040260200160405190810160405280929190818152602001828054600181600116156101000203166002900480156104495780601f1061041e57610100808354040283529160200191610449565b820191906000526020600020905b81548152906001019060200180831161042c57829003601f168201915b5050505050815260200190600101906103a1565b50505050905090565b80600260006101000a81548173ffffffffffffffffffffffffffffffffffffffff021916908373ffffffffffffffffffffffffffffffffffffffff16021790555050565b6000600260009054906101000a900473ffffffffffffffffffffffffffffffffffffffff16905090565b600081805160208101820180518482526020830160208501208183528095505050505050600091509050806000018054600181600116156101000203166002900480601f0160208091040260200160405190810160405280929190818152602001828054600181600116156101000203166002900480156105965780601f1061056b57610100808354040283529160200191610596565b820191906000526020600020905b81548152906001019060200180831161057957829003601f168201915b505050505090806001018054600181600116156101000203166002900480601f0160208091040260200160405190810160405280929190818152602001828054600181600116156101000203166002900480156106345780601f1061060957610100808354040283529160200191610634565b820191906000526020600020905b81548152906001019060200180831161061757829003601f168201915b5050505050908060020160009054906101000a900460ff1690806003018054600181600116156101000203166002900480601f0160208091040260200160405190810160405280929190818152602001828054600181600116156101000203166002900480156106e55780601f106106ba576101008083540402835291602001916106e5565b820191906000526020600020905b8154815290600101906020018083116106c857829003601f168201915b5050505050905084565b600181815481106106fc57fe5b906000526020600020016000915090508054600181600116156101000203166002900480601f0160208091040260200160405190810160405280929190818152602001828054600181600116156101000203166002900480156107a05780601f10610775576101008083540402835291602001916107a0565b820191906000526020600020905b81548152906001019060200180831161078357829003601f168201915b505050505081565b828054600181600116156101000203166002900490600052602060002090601f016020900481019282601f106107e957805160ff1916838001178555610817565b82800160010185558215610817579182015b828111156108165782518255916020019190600101906107fb565b5b5090506108249190610828565b5090565b61084a91905b8082111561084657600081600090555060010161082e565b5090565b90565b60008135905061085c81611064565b92915050565b6000813590506108718161107b565b92915050565b600082601f83011261088857600080fd5b813561089b61089682610eac565b610e7f565b915080825260208301602083018583830111156108b757600080fd5b6108c2838284610fea565b50505092915050565b600082601f8301126108dc57600080fd5b81356108ef6108ea82610ed8565b610e7f565b9150808252602083016020830185838301111561090b57600080fd5b610916838284610fea565b50505092915050565b60008135905061092e81611092565b92915050565b60006020828403121561094657600080fd5b60006109548482850161084d565b91505092915050565b60006020828403121561096f57600080fd5b600082013567ffffffffffffffff81111561098957600080fd5b61099584828501610877565b91505092915050565b6000602082840312156109b057600080fd5b600082013567ffffffffffffffff8111156109ca57600080fd5b6109d6848285016108cb565b91505092915050565b600080600080608085870312156109f557600080fd5b600085013567ffffffffffffffff811115610a0f57600080fd5b610a1b878288016108cb565b945050602085013567ffffffffffffffff811115610a3857600080fd5b610a44878288016108cb565b9350506040610a5587828801610862565b925050606085013567ffffffffffffffff811115610a7257600080fd5b610a7e878288016108cb565b91505092959194509250565b600060208284031215610a9c57600080fd5b6000610aaa8482850161091f565b91505092915050565b6000610abf8383610bd3565b905092915050565b610ad081610fa2565b82525050565b6000610ae182610f29565b610aeb8185610f57565b935083602082028501610afd85610f04565b8060005b85811015610b395784840389528151610b1a8582610ab3565b9450610b2583610f4a565b925060208a01995050600181019050610b01565b50829750879550505050505092915050565b610b5481610fb4565b82525050565b610b6381610fb4565b82525050565b6000610b7482610f3f565b610b7e8185610f79565b9350610b8e818560208601610ff9565b610b9781611046565b840191505092915050565b6000610bad82610f3f565b610bb78185610f8a565b9350610bc7818560208601610ff9565b80840191505092915050565b6000610bde82610f34565b610be88185610f68565b9350610bf8818560208601610ff9565b610c0181611046565b840191505092915050565b6000610c1782610f34565b610c218185610f79565b9350610c31818560208601610ff9565b610c3a81611046565b840191505092915050565b600081546001811660008114610c625760018114610c8857610ccc565b607f6002830416610c738187610f68565b955060ff198316865260208601935050610ccc565b60028204610c968187610f68565b9550610ca185610f14565b60005b82811015610cc357815481890152600182019150602081019050610ca4565b80880195505050505b505092915050565b60006080830160008084018583036000870152610cf18382610c45565b925050600184018583036020870152610d0a8382610c45565b92505060028401549050610d1d8161102c565b610d2a6040870182610b4b565b50600384018583036060870152610d418382610c45565b925050819250505092915050565b6000610d5b8284610ba2565b915081905092915050565b6000602082019050610d7b6000830184610ac7565b92915050565b6000604082019050610d966000830185610ac7565b8181036020830152610da88184610b69565b90509392505050565b6000604082019050610dc66000830185610ac7565b8181036020830152610dd88184610cd4565b90509392505050565b60006020820190508181036000830152610dfb8184610ad6565b905092915050565b60006020820190508181036000830152610e1d8184610c0c565b905092915050565b60006080820190508181036000830152610e3f8187610c0c565b90508181036020830152610e538186610c0c565b9050610e626040830185610b5a565b8181036060830152610e748184610c0c565b905095945050505050565b6000604051905081810181811067ffffffffffffffff82111715610ea257600080fd5b8060405250919050565b600067ffffffffffffffff821115610ec357600080fd5b601f19601f8301169050602081019050919050565b600067ffffffffffffffff821115610eef57600080fd5b601f19601f8301169050602081019050919050565b6000819050602082019050919050565b60008190508160005260206000209050919050565b600081519050919050565b600081519050919050565b600081519050919050565b6000602082019050919050565b600082825260208201905092915050565b600082825260208201905092915050565b600082825260208201905092915050565b600081905092915050565b600060ff82169050919050565b6000610fad82610fc0565b9050919050565b60008115159050919050565b600073ffffffffffffffffffffffffffffffffffffffff82169050919050565b6000819050919050565b82818337600083830152505050565b60005b83811015611017578082015181840152602081019050610ffc565b83811115611026576000848401525b50505050565b600061103f61103a83611057565b610f95565b9050919050565b6000601f19601f8301169050919050565b60008160001c9050919050565b61106d81610fa2565b811461107857600080fd5b50565b61108481610fb4565b811461108f57600080fd5b50565b61109b81610fe0565b81146110a657600080fd5b5056fea365627a7a723158207854faedbfef485229f13e31f7476cf150d36992a7f33fb3c180b0b1361ba3556c6578706572696d656e74616cf564736f6c63430005100040",
  "source": "pragma experimental ABIEncoderV2;\nimport \"./myOracle.sol\";\ncontract Map{\n    struct markerData{\n        string title;\n        string description;\n        bool status;\n        string _address;\n    }\n    mapping(string => markerData) public marker; \n    string[] public data;\n    address oracle_address;\n    event Notification(address return_address, markerData message);\n    //event addMarker(string);\n    function insertData(string memory title, string memory desc,bool status,string memory _data) public {\n        data.push(_data);\n        marker[_data].title = title;\n        marker[_data].description = desc;\n        marker[_data].status = status;\n        marker[_data]._address = _data;\n        myOracle(oracle_address).getOracleData(address(this), _data);\n    }\n    function getData() public view returns(string[] memory){\n\n        return data;\n    }\n\n    function setOracle(address _address) public {\n        oracle_address = _address; \n    }\n \n    function getOracle() public view returns (address oracle_addr){\n        return oracle_address;\n    }\n \n    function oracleCallback(string memory message) public {\n        emit Notification(address(this), marker[message]);\n    }\n}",
  "sourcePath": "/Users/miketsui/Desktop/school/cs4389/assignment/contracts/Map.sol",
  "compiler": {
    "name": "solc",
    "version": "0.5.16+commit.9c3226ce.Emscripten.clang"
  },
  "schemaVersion": "3.0.23",
  "updatedAt": "2020-04-26T12:46:58.895Z",
  "networkType": "ethereum",
  "devdoc": {
    "methods": {}
  },
  "userdoc": {
    "methods": {}
  }
}