{
  "contractName": "Map",
  "abi": [
    {
      "anonymous": false,
      "inputs": [
        {
          "indexed": false,
          "internalType": "address",
          "name": "return_address",
          "type": "address"
        },
        {
          "components": [
            {
              "internalType": "string",
              "name": "title",
              "type": "string"
            },
            {
              "internalType": "string",
              "name": "description",
              "type": "string"
            },
            {
              "internalType": "bool",
              "name": "status",
              "type": "bool"
            },
            {
              "internalType": "string",
              "name": "_address",
              "type": "string"
            },
            {
              "internalType": "string",
              "name": "time",
              "type": "string"
            }
          ],
          "indexed": false,
          "internalType": "struct Map.markerData",
          "name": "message",
          "type": "tuple"
        }
      ],
      "name": "Notification",
      "type": "event"
    },
    {
      "constant": true,
      "inputs": [
        {
          "internalType": "uint256",
          "name": "",
          "type": "uint256"
        }
      ],
      "name": "data",
      "outputs": [
        {
          "internalType": "string",
          "name": "",
          "type": "string"
        }
      ],
      "payable": false,
      "stateMutability": "view",
      "type": "function"
    },
    {
      "constant": true,
      "inputs": [
        {
          "internalType": "string",
          "name": "",
          "type": "string"
        }
      ],
      "name": "marker",
      "outputs": [
        {
          "internalType": "string",
          "name": "title",
          "type": "string"
        },
        {
          "internalType": "string",
          "name": "description",
          "type": "string"
        },
        {
          "internalType": "bool",
          "name": "status",
          "type": "bool"
        },
        {
          "internalType": "string",
          "name": "_address",
          "type": "string"
        },
        {
          "internalType": "string",
          "name": "time",
          "type": "string"
        }
      ],
      "payable": false,
      "stateMutability": "view",
      "type": "function"
    },
    {
      "constant": false,
      "inputs": [
        {
          "internalType": "string",
          "name": "title",
          "type": "string"
        },
        {
          "internalType": "string",
          "name": "desc",
          "type": "string"
        },
        {
          "internalType": "bool",
          "name": "status",
          "type": "bool"
        },
        {
          "internalType": "string",
          "name": "_data",
          "type": "string"
        },
        {
          "internalType": "string",
          "name": "time",
          "type": "string"
        }
      ],
      "name": "insertData",
      "outputs": [],
      "payable": false,
      "stateMutability": "nonpayable",
      "type": "function"
    },
    {
      "constant": true,
      "inputs": [],
      "name": "getData",
      "outputs": [
        {
          "internalType": "string[]",
          "name": "",
          "type": "string[]"
        }
      ],
      "payable": false,
      "stateMutability": "view",
      "type": "function"
    },
    {
      "constant": false,
      "inputs": [
        {
          "internalType": "address",
          "name": "_address",
          "type": "address"
        }
      ],
      "name": "setOracle",
      "outputs": [],
      "payable": false,
      "stateMutability": "nonpayable",
      "type": "function"
    },
    {
      "constant": true,
      "inputs": [],
      "name": "getOracle",
      "outputs": [
        {
          "internalType": "address",
          "name": "oracle_addr",
          "type": "address"
        }
      ],
      "payable": false,
      "stateMutability": "view",
      "type": "function"
    },
    {
      "constant": false,
      "inputs": [
        {
          "internalType": "string",
          "name": "message",
          "type": "string"
        }
      ],
      "name": "oracleCallback",
      "outputs": [],
      "payable": false,
      "stateMutability": "nonpayable",
      "type": "function"
    }
  ],
  "bytecode": "0x608060405234801561001057600080fd5b50611233806100206000396000f3fe608060405234801561001057600080fd5b506004361061007d5760003560e01c80637adbf9731161005b5780637adbf973146100d8578063833b1fce146100f45780639382d5bf14610112578063f0ba8440146101465761007d565b80630bfd3b8d14610082578063174de1131461009e5780633bc5de30146100ba575b600080fd5b61009c60048036036100979190810190610a76565b610176565b005b6100b860048036036100b39190810190610ab7565b6101cf565b005b6100c26103b7565b6040516100cf9190610f13565b60405180910390f35b6100f260048036036100ed9190810190610a0c565b6104a0565b005b6100fc6104e4565b6040516101099190610e83565b60405180910390f35b61012c60048036036101279190810190610a35565b61050e565b60405161013d959493929190610f57565b60405180910390f35b610160600480360361015b9190810190610b8e565b6107c7565b60405161016d9190610f35565b60405180910390f35b7fece171d408f9d0d1ffc5323ea95232b220dd5251c84bb4d3fe29af83248c102a306000836040516101a89190610e6c565b90815260200160405180910390206040516101c4929190610ee3565b60405180910390a150565b600182908060018154018082558091505090600182039060005260206000200160009091929091909150908051906020019061020c929190610880565b50508460008360405161021f9190610e6c565b90815260200160405180910390206000019080519060200190610243929190610880565b50836000836040516102559190610e6c565b90815260200160405180910390206001019080519060200190610279929190610880565b508260008360405161028b9190610e6c565b908152602001604051809103902060020160006101000a81548160ff021916908315150217905550816000836040516102c49190610e6c565b908152602001604051809103902060030190805190602001906102e8929190610880565b50806000836040516102fa9190610e6c565b9081526020016040518091039020600401908051906020019061031e929190610880565b50600260009054906101000a900473ffffffffffffffffffffffffffffffffffffffff1673ffffffffffffffffffffffffffffffffffffffff16632af808203084846040518463ffffffff1660e01b815260040161037e93929190610e9e565b600060405180830381600087803b15801561039857600080fd5b505af11580156103ac573d6000803e3d6000fd5b505050505050505050565b60606001805480602002602001604051908101604052809291908181526020016000905b82821015610497578382906000526020600020018054600181600116156101000203166002900480601f0160208091040260200160405190810160405280929190818152602001828054600181600116156101000203166002900480156104835780601f1061045857610100808354040283529160200191610483565b820191906000526020600020905b81548152906001019060200180831161046657829003601f168201915b5050505050815260200190600101906103db565b50505050905090565b80600260006101000a81548173ffffffffffffffffffffffffffffffffffffffff021916908373ffffffffffffffffffffffffffffffffffffffff16021790555050565b6000600260009054906101000a900473ffffffffffffffffffffffffffffffffffffffff16905090565b600081805160208101820180518482526020830160208501208183528095505050505050600091509050806000018054600181600116156101000203166002900480601f0160208091040260200160405190810160405280929190818152602001828054600181600116156101000203166002900480156105d05780601f106105a5576101008083540402835291602001916105d0565b820191906000526020600020905b8154815290600101906020018083116105b357829003601f168201915b505050505090806001018054600181600116156101000203166002900480601f01602080910402602001604051908101604052809291908181526020018280546001816001161561010002031660029004801561066e5780601f106106435761010080835404028352916020019161066e565b820191906000526020600020905b81548152906001019060200180831161065157829003601f168201915b5050505050908060020160009054906101000a900460ff1690806003018054600181600116156101000203166002900480601f01602080910402602001604051908101604052809291908181526020018280546001816001161561010002031660029004801561071f5780601f106106f45761010080835404028352916020019161071f565b820191906000526020600020905b81548152906001019060200180831161070257829003601f168201915b505050505090806004018054600181600116156101000203166002900480601f0160208091040260200160405190810160405280929190818152602001828054600181600116156101000203166002900480156107bd5780601f10610792576101008083540402835291602001916107bd565b820191906000526020600020905b8154815290600101906020018083116107a057829003601f168201915b5050505050905085565b600181815481106107d457fe5b906000526020600020016000915090508054600181600116156101000203166002900480601f0160208091040260200160405190810160405280929190818152602001828054600181600116156101000203166002900480156108785780601f1061084d57610100808354040283529160200191610878565b820191906000526020600020905b81548152906001019060200180831161085b57829003601f168201915b505050505081565b828054600181600116156101000203166002900490600052602060002090601f016020900481019282601f106108c157805160ff19168380011785556108ef565b828001600101855582156108ef579182015b828111156108ee5782518255916020019190600101906108d3565b5b5090506108fc9190610900565b5090565b61092291905b8082111561091e576000816000905550600101610906565b5090565b90565b600081359050610934816111ab565b92915050565b600081359050610949816111c2565b92915050565b600082601f83011261096057600080fd5b813561097361096e82610ff3565b610fc6565b9150808252602083016020830185838301111561098f57600080fd5b61099a838284611131565b50505092915050565b600082601f8301126109b457600080fd5b81356109c76109c28261101f565b610fc6565b915080825260208301602083018583830111156109e357600080fd5b6109ee838284611131565b50505092915050565b600081359050610a06816111d9565b92915050565b600060208284031215610a1e57600080fd5b6000610a2c84828501610925565b91505092915050565b600060208284031215610a4757600080fd5b600082013567ffffffffffffffff811115610a6157600080fd5b610a6d8482850161094f565b91505092915050565b600060208284031215610a8857600080fd5b600082013567ffffffffffffffff811115610aa257600080fd5b610aae848285016109a3565b91505092915050565b600080600080600060a08688031215610acf57600080fd5b600086013567ffffffffffffffff811115610ae957600080fd5b610af5888289016109a3565b955050602086013567ffffffffffffffff811115610b1257600080fd5b610b1e888289016109a3565b9450506040610b2f8882890161093a565b935050606086013567ffffffffffffffff811115610b4c57600080fd5b610b58888289016109a3565b925050608086013567ffffffffffffffff811115610b7557600080fd5b610b81888289016109a3565b9150509295509295909350565b600060208284031215610ba057600080fd5b6000610bae848285016109f7565b91505092915050565b6000610bc38383610cd7565b905092915050565b610bd4816110e9565b82525050565b6000610be582611070565b610bef818561109e565b935083602082028501610c018561104b565b8060005b85811015610c3d5784840389528151610c1e8582610bb7565b9450610c2983611091565b925060208a01995050600181019050610c05565b50829750879550505050505092915050565b610c58816110fb565b82525050565b610c67816110fb565b82525050565b6000610c7882611086565b610c8281856110c0565b9350610c92818560208601611140565b610c9b8161118d565b840191505092915050565b6000610cb182611086565b610cbb81856110d1565b9350610ccb818560208601611140565b80840191505092915050565b6000610ce28261107b565b610cec81856110af565b9350610cfc818560208601611140565b610d058161118d565b840191505092915050565b6000610d1b8261107b565b610d2581856110c0565b9350610d35818560208601611140565b610d3e8161118d565b840191505092915050565b600081546001811660008114610d665760018114610d8c57610dd0565b607f6002830416610d7781876110af565b955060ff198316865260208601935050610dd0565b60028204610d9a81876110af565b9550610da58561105b565b60005b82811015610dc757815481890152600182019150602081019050610da8565b80880195505050505b505092915050565b600060a0830160008084018583036000870152610df58382610d49565b925050600184018583036020870152610e0e8382610d49565b92505060028401549050610e2181611173565b610e2e6040870182610c4f565b50600384018583036060870152610e458382610d49565b925050600484018583036080870152610e5e8382610d49565b925050819250505092915050565b6000610e788284610ca6565b915081905092915050565b6000602082019050610e986000830184610bcb565b92915050565b6000606082019050610eb36000830186610bcb565b8181036020830152610ec58185610c6d565b90508181036040830152610ed98184610c6d565b9050949350505050565b6000604082019050610ef86000830185610bcb565b8181036020830152610f0a8184610dd8565b90509392505050565b60006020820190508181036000830152610f2d8184610bda565b905092915050565b60006020820190508181036000830152610f4f8184610d10565b905092915050565b600060a0820190508181036000830152610f718188610d10565b90508181036020830152610f858187610d10565b9050610f946040830186610c5e565b8181036060830152610fa68185610d10565b90508181036080830152610fba8184610d10565b90509695505050505050565b6000604051905081810181811067ffffffffffffffff82111715610fe957600080fd5b8060405250919050565b600067ffffffffffffffff82111561100a57600080fd5b601f19601f8301169050602081019050919050565b600067ffffffffffffffff82111561103657600080fd5b601f19601f8301169050602081019050919050565b6000819050602082019050919050565b60008190508160005260206000209050919050565b600081519050919050565b600081519050919050565b600081519050919050565b6000602082019050919050565b600082825260208201905092915050565b600082825260208201905092915050565b600082825260208201905092915050565b600081905092915050565b600060ff82169050919050565b60006110f482611107565b9050919050565b60008115159050919050565b600073ffffffffffffffffffffffffffffffffffffffff82169050919050565b6000819050919050565b82818337600083830152505050565b60005b8381101561115e578082015181840152602081019050611143565b8381111561116d576000848401525b50505050565b60006111866111818361119e565b6110dc565b9050919050565b6000601f19601f8301169050919050565b60008160001c9050919050565b6111b4816110e9565b81146111bf57600080fd5b50565b6111cb816110fb565b81146111d657600080fd5b50565b6111e281611127565b81146111ed57600080fd5b5056fea365627a7a723158201666549746fe8e192fdb455060680f5da0cedc4832a2f30524648588f782434f6c6578706572696d656e74616cf564736f6c63430005100040",
  "source": "pragma experimental ABIEncoderV2;\nimport \"./myOracle.sol\";\ncontract Map{\n    struct markerData{\n        string title;\n        string description;\n        bool status;\n        string _address;\n        string time;\n    }\n    mapping(string => markerData) public marker; \n    string[] public data;\n    address oracle_address;\n    event Notification(address return_address, markerData message);\n    //event addMarker(string);\n    function insertData(string memory title, string memory desc,bool status,string memory _data, string memory time) public {\n        data.push(_data);\n        marker[_data].title = title;\n        marker[_data].description = desc;\n        marker[_data].status = status;\n        marker[_data]._address = _data;\n        marker[_data].time = time;\n        myOracle(oracle_address).getOracleData(address(this), _data, time);\n    }\n    function getData() public view returns(string[] memory){\n\n        return data;\n    }\n\n    function setOracle(address _address) public {\n        oracle_address = _address; \n    }\n \n    function getOracle() public view returns (address oracle_addr){\n        return oracle_address;\n    }\n \n    function oracleCallback(string memory message) public {\n        emit Notification(address(this), marker[message]);\n    }\n}",
  "sourcePath": "/Users/miketsui/Desktop/school/cs4389/assignment/contracts/Map.sol",
  "compiler": {
    "name": "solc",
    "version": "0.5.16+commit.9c3226ce.Emscripten.clang"
  },
  "schemaVersion": "3.0.23",
  "updatedAt": "2020-04-27T07:15:39.373Z",
  "networkType": "ethereum",
  "devdoc": {
    "methods": {}
  },
  "userdoc": {
    "methods": {}
  }
}