{
  "contractName": "myOracle",
  "abi": [
    {
      "anonymous": false,
      "inputs": [
        {
          "indexed": false,
          "internalType": "address",
          "name": "me",
          "type": "address"
        },
        {
          "indexed": false,
          "internalType": "string",
          "name": "data",
          "type": "string"
        }
      ],
      "name": "ToOracle",
      "type": "event"
    },
    {
      "constant": false,
      "inputs": [
        {
          "internalType": "address",
          "name": "client_address",
          "type": "address"
        },
        {
          "internalType": "string",
          "name": "data_input",
          "type": "string"
        }
      ],
      "name": "getOracleData",
      "outputs": [],
      "payable": false,
      "stateMutability": "nonpayable",
      "type": "function"
    }
  ],
  "bytecode": "0x608060405234801561001057600080fd5b5061019a806100206000396000f3fe608060405234801561001057600080fd5b506004361061002b5760003560e01c8063210d1a4014610030575b600080fd5b6100c76004803603604081101561004657600080fd5b81019080803573ffffffffffffffffffffffffffffffffffffffff1690602001909291908035906020019064010000000081111561008357600080fd5b82018360208201111561009557600080fd5b803590602001918460018302840111640100000000831117156100b757600080fd5b90919293919293905050506100c9565b005b7f9220bf40e7f4a9d32bb47c3a2d9f2d3e671f2c389bdb09c88540f7b076d56762838383604051808473ffffffffffffffffffffffffffffffffffffffff1673ffffffffffffffffffffffffffffffffffffffff168152602001806020018281038252848482818152602001925080828437600081840152601f19601f82011690508083019250505094505050505060405180910390a150505056fea265627a7a72315820d87968a17accc37c3fe64aa8614466f70f28bc9ae60c423b0e5f731e52d019c164736f6c634300050c0032",
  "source": "pragma solidity >=0.4.21 <0.7.0;\r\n\r\n\r\ncontract myOracle {\r\n    //O1\r\n    event ToOracle(address me, string data); //event K\r\n\r\n    function getOracleData(address client_address, string calldata data_input)\r\n        external\r\n    {\r\n        emit ToOracle(client_address, data_input); // O1 emit K\r\n    }\r\n}\r\n",
  "sourcePath": "C:\\Users\\cs4389\\CS4389-project\\ethereumMap\\contracts\\myOracle.sol",
  "compiler": {
    "name": "solc",
    "version": "0.5.12+commit.7709ece9.Emscripten.clang"
  },
  "schemaVersion": "3.0.19",
  "updatedAt": "2020-04-19T15:50:45.028Z",
  "devdoc": {
    "methods": {}
  },
  "userdoc": {
    "methods": {}
  }
}