{
  "contractName": "myOracle",
  "abi": [
    {
      "anonymous": false,
      "inputs": [
        {
          "indexed": false,
          "internalType": "address",
          "name": "me",
          "type": "address"
        },
        {
          "indexed": false,
          "internalType": "string",
          "name": "data",
          "type": "string"
        }
      ],
      "name": "ToOracle",
      "type": "event"
    },
    {
      "constant": false,
      "inputs": [
        {
          "internalType": "address",
          "name": "client_address",
          "type": "address"
        },
        {
          "internalType": "string",
          "name": "data_input",
          "type": "string"
        }
      ],
      "name": "getOracleData",
      "outputs": [],
      "payable": false,
      "stateMutability": "nonpayable",
      "type": "function"
    }
  ],
  "bytecode": "0x608060405234801561001057600080fd5b5061019a806100206000396000f3fe608060405234801561001057600080fd5b506004361061002b5760003560e01c8063210d1a4014610030575b600080fd5b6100c76004803603604081101561004657600080fd5b81019080803573ffffffffffffffffffffffffffffffffffffffff1690602001909291908035906020019064010000000081111561008357600080fd5b82018360208201111561009557600080fd5b803590602001918460018302840111640100000000831117156100b757600080fd5b90919293919293905050506100c9565b005b7f9220bf40e7f4a9d32bb47c3a2d9f2d3e671f2c389bdb09c88540f7b076d56762838383604051808473ffffffffffffffffffffffffffffffffffffffff1673ffffffffffffffffffffffffffffffffffffffff168152602001806020018281038252848482818152602001925080828437600081840152601f19601f82011690508083019250505094505050505060405180910390a150505056fea265627a7a7231582069ee888368425419ee0c87f5734ab3828b104ee969e6e1fddae2fc25d7f432f564736f6c63430005100032",
  "source": "pragma solidity >=0.4.21 <0.7.0;\n\n\ncontract myOracle {\n    //O1\n    event ToOracle(address me, string data); //event K\n\n    function getOracleData(address client_address, string calldata data_input)\n        external\n    {\n        emit ToOracle(client_address, data_input); // O1 emit K\n    }\n}\n",
  "sourcePath": "/Users/miketsui/Desktop/school/cs4389/assignment/contracts/myOracle.sol",
  "compiler": {
    "name": "solc",
    "version": "0.5.16+commit.9c3226ce.Emscripten.clang"
  },
  "schemaVersion": "3.0.23",
  "updatedAt": "2020-04-26T12:46:58.897Z",
  "networkType": "ethereum",
  "devdoc": {
    "methods": {}
  },
  "userdoc": {
    "methods": {}
  }
}